:020000040800F2
:10000000483800204D020008B516000825160008E3
:1000100091160008E9040008A9210008000000006A
:10002000000000000000000000000000F7200008B1
:10003000EB04000800000000B7160008F9200008D3
:1000400067020008670200086702000867020008EC
:1000500067020008670200086702000867020008DC
:1000600067020008670200086702000867020008CC
:1000700067020008670200086702000867020008BC
:1000800067020008670200086702000867020008AC
:10009000670200086702000867020008670200089C
:1000A000670200086702000867020008670200088C
:1000B000670200086702000867020008670200087C
:1000C000670200086702000867020008670200086C
:1000D000670200086702000867020008670200085C
:1000E000670200086702000867020008670200084C
:1000F000670200086702000867020008670200083C
:10010000670200086702000867020008670200082B
:10011000670200086702000867020008670200081B
:10012000670200086702000867020008670200080B
:1001300067020008670200086702000867020008FB
:1001400067020008670200086702000867020008EB
:1001500067020008670200086702000867020008DB
:1001600067020008670200086702000867020008CB
:10017000670200086702000867020008000000002C
:1001800067020008670200086702000867020008AB
:10019000670200086702000867020008670200089B
:1001A00067020008670200086702000800F002F812
:1001B00000F03CF80AA090E8000C82448344AAF1C5
:1001C0000107DA4501D100F031F8AFF2090EBAE8C3
:1001D0000F0013F0010F18BFFB1A43F0010318477B
:1001E000E433000004340000103A24BF78C878C11A
:1001F000FAD8520724BF30C830C144BF04680C602D
:10020000704700000023002400250026103A28BF74
:1002100078C1FBD8520728BF30C148BF0B60704778
:100220001FB503F06AF91FBD10B510BD00F0CFF87F
:100230001146FFF7F5FF02F079FF00F0EDF803B487
:10024000FFF7F2FF03BC00F0F5F800000948804713
:1002500009480047FEE7FEE7FEE7FEE7FEE7FEE7A8
:10026000FEE7FEE7FEE7FEE704480549054A064BC0
:100270007047000099210008AD01000848320020B5
:1002800048380020483400204834002053EA020C4B
:1002900000F069802DE9F04B4FF00006002B1FBFE6
:1002A000B3FA83F503FA05F424FA05F65E4012BFAB
:1002B0001643B2FA82F502FA05F4C5F120051EBF15
:1002C00022FA05FC44EA0C04203556EA044C4FEAB5
:1002D000144418BF641C4FF000084FF0000990420E
:1002E00071EB030C39D3002919BFB1FA81F701FA78
:1002F00007F6B0FA80F700FA07F6C7F120071EBF2D
:1003000020FA07FC46EA0C062037B6FBF4FCA7EB04
:100310000507103F07F01F0BCBF120060CFA0BFB73
:100320002CFA06F644BFB3460026202FA4BF5E4633
:100330004FF0000B5BEA060C08BF4FF0010B19EB06
:100340000B09ABFB027C48EB0608C01B06FB02CC8A
:100350000BFB03CC71EB0C01C1E70B460246414697
:100360004846BDE8F08B13B54FF000004FF0000198
:10037000AFF30080BDE81C4070474FF0000200B5AD
:10038000134694469646203922BFA0E80C50A0E8B8
:100390000C50B1F12001BFF4F7AF090728BFA0E866
:1003A0000C5048BF0CC05DF804EB890028BF40F832
:1003B000042B08BF704748BF20F8022B11F0804F74
:1003C00018BF00F8012B704770477047704775469B
:1003D00000F02CF8AE4605006946534620F00700B1
:1003E000854618B020B5FFF73FFFBDE820404FF02D
:1003F00000064FF000074FF000084FF0000B21F00F
:100400000701AC46ACE8C009ACE8C009ACE8C009DB
:10041000ACE8C0098D46704710B50446AFF30080C4
:100420002046BDE81040FFF70ABF000000487047B3
:10043000E831002001491820ABBEFEE7260002008B
:10044000704700000146014800F044BED43000204F
:1004500010B5044800F050FE042801D0012010BD62
:10046000002010BDD430002010B500F015F8012890
:1004700001D0012010BD074800F054FE040006D151
:100480004FF40061034800F0CDFC00B10124204688
:1004900010BD0000D430002008B501208DF8000008
:1004A0009DF8000008BD000038B5002400931346F5
:1004B0000A460146034800F0D9FE00B10124204657
:1004C00038BD0000D430002038B500240093134616
:1004D0000A460146034800F0B9FF00B10124204656
:1004E00038BD0000D4300020FEE77047002200F045
:1004F00001B8000030B50E4B054601205C7A002C97
:1005000014D1587A1C54587A03EB800045605D7A08
:1005100003F108002A54587A421C5A72303008708D
:100520003A2048702F208870CC70002030BD000029
:10053000DC31002070B5044600F028F90546601C47
:1005400002D004480078044400F020F9401BA04287
:10055000FAD370BD380000202DE9F84FDFF8F8A17C
:100560000022012403254FF00F090AF1040BAAF120
:10057000040E00BF0B6804FA02F63340B34270D198
:100580000F7907F00307012F01D0022F16D18768DA
:100590004FEA420805FA08FC27EA0C07D1F80CC01C
:1005A0000CFA08FC4CEA070CC0F808C04768B743CF
:1005B0000E79C6F3001696403E4346600E79F64328
:1005C000B6070AD0C7684FEA420C05FA0CF6B743E3
:1005D0008E6806FA0CF63E43C6600E7906F00306F6
:1005E000022E10D1D60800EB8608D8F820605707F5
:1005F0004FEAD76C09FA0CF7BE430F6907FA0CF7FC
:100600003743C8F8207006684FEA420C05FA0CF729
:10061000BE430F7907F0030707FA0CF7374307606B
:100620004E6816F4403F1CD04C4E376847F4804764
:100630003760366822F0030706F480460096484E7D
:1006400007EB060CDCF8086897073F0F09FA07F874
:1006500026EA0806DFF80C81404503D14FF0000878
:1006600041E072E0DFF80081404502D14FF001081F
:1006700039E0DFF8F880404502D14FF0020832E05F
:10068000DFF8EC80404502D14FF003082BE0DFF8A3
:10069000E480404502D14FF0040824E0DFF8D88020
:1006A000404502D14FF005081DE0DFF8D0804045FD
:1006B00002D14FF0060816E0DFF8C480404502D1B1
:1006C0004FF007080FE0DFF8BC80404502D14FF043
:1006D000080808E0DFF8B080404502D14FF0090873
:1006E00001E04FF00A0808FA07F848EA0608CCF8D3
:1006F0000888DAF800605746D1F804C09E435FEAE4
:10070000CC2C00D51E433E60DBF800605F46D1F87C
:1007100004C09E435FEA8C2C00D51E433E60DEF889
:1007200000607746D1F804C09E435FEA8C3C00D558
:100730001E433E60084F083F3E68D1F804C09E4308
:100740005FEACC3C00D51E433E60521C102AFFF4E9
:1007500011AFBDE8F88F0000083C0140443802406A
:100760000030014000000240000402400008024046
:10077000000C024000100240001402400018024029
:10078000001C024000200240002402400148806812
:100790007047000038000020024881680278114448
:1007A00081607047380000200B4810B5016841F4A3
:1007B00000710160016841F480610160016841F4E9
:1007C00080710160032000F061F80F2000F006F84E
:1007D00000F024F8002010BD003C024070B50D4D23
:1007E00004464FF47A712878B1FBF0F00A490968A1
:1007F000B1FBF0F000F002FF48B9102C07D2002244
:100800002146501E00F022F800206C6070BD0120CF
:1008100070BD000038000020440000200A4808B5E0
:10082000016841F480410160006800F4804000905C
:100830000548001F016841F080510160006800F028
:100840008050009008BD000044380240F0B40E4BC8
:100850001B680C46C3F30223C3F10705042D00D91E
:100860000425191D072901D2002300E0DB1E012603
:1008700006FA05F1491E214099409E40761E164019
:100880003143F0BC01F09EBC0CED00E0064900F0E5
:10089000070208684FF6FF03184040EA0220034AA7
:1008A00010430860704700000CED00E00000FA05FE
:1008B0002DE9F8431748016841F080510160006854
:1008C000154F00F08050012600903E64FFF75EFF58
:1008D00005464FF47A78114C05E000BFFFF756FF4C
:1008E000401B40450DD86068C003F7D57E64FFF714
:1008F0004DFF0546464607E0FFF748FF401BB04264
:1009000002D90320BDE8F88360688003F4D5002095
:10091000F8E700004038024000000E42007000403E
:100920002DE9F0470E46050065D0DFF81481D8F8B0
:100930000000F7B200F00F00B04207D288F8007054
:10094000D8F8000000F00F00B04254D128683D4CA8
:10095000810712D5400703D5206840F4E05020609D
:100960002878000703D5206840F4604020602068A4
:10097000A96820F0F000084320602878C0072DD037
:10098000304968680839012812D0022813D003289A
:1009900011D00968890700292DDA216821F00301A7
:1009A00001432160FFF7F2FE814641F2883A0EE0F2
:1009B00009688903EFE709688901ECE7FFF7E6FEBC
:1009C000A0EB0901514502D90320BDE8F08720685A
:1009D000696800F00C00B0EB810FEFD1D8F800107F
:1009E000404601F00F01B14207D90770006800F0DE
:1009F0000F00B04201D00120E7E72878400705D575
:100A00002068E96820F4E050084320602878000757
:100A100006D52068296920F4604040EAC1002060C2
:100A200000F018F82168084AC1F30311515CC8406E
:100A30000649086006480068FFF7D0FE0020C4E7BA
:100A4000003C0240083802401835000844000020ED
:100A50003C000020154810B5006810F00C02144846
:100A600013D01449042A0FD0082A0ED10F4C241F8A
:100A70002268236802F03F025B0207D52068C0F3BA
:100A80008810A0FB010106E0084610BD2168C1F3F3
:100A90008811A1FB00010023FFF7F8FB2168C1F3D7
:100AA0000141491C4900B0FBF1F010BD083802407B
:100AB0000024F40040787D012DE9F84F04006ED049
:100AC0002078DFF84C93C007A9F104054AD009F15A
:100AD00004000168C1F38101012908D00068C0F356
:100AE000810002280AD1D9F80000400206D5286802
:100AF000800337D560680028E1D033E06068B0F546
:100B0000803F10D0B0F5A02F286810D020F480309E
:100B10002860286820F4802028606068A8B1FFF76A
:100B200035FE06460DE0286840F48030F4E740F4D6
:100B300080202860F7E700BFFFF728FE801B6428AD
:100B400073D828688003F7D50CE0FFF71FFE064630
:100B500005E000BFFFF71AFE801B6428F0D8286864
:100B60008003F7D42078DFF8AC8280074FF0000ACA
:100B70003ED5A748001D016811F00C0F08D0006891
:100B8000C0F3810002280BD1D9F80000400207D43D
:100B90002868800716D5E068012800D112E033E10B
:100BA000E068B8B10120C8F80000FFF7EFFD064685
:100BB00005E000BFFFF7EAFD801B0228C0D82868C7
:100BC0008007F7D52868216920F0F80040EAC100C5
:100BD00028600DE0C8F800A0FFF7D8FD064604E045
:100BE000FFF7D4FD801B02281FD828688007F7D4A0
:100BF0002078000722D5864F87486169703771B128
:100C000001210160FFF7C2FD064604E0FFF7BEFDCB
:100C1000801B022809D838688007F7D50EE0C0F895
:100C200000A0FFF7B3FD064605E082E0FFF7AEFD4A
:100C3000801B02287DD838688007F7D420784007C9
:100C400068D5DFF8CCB100270BF13C0BDBF80000D6
:100C5000C0000BD4DBF8001041F08051CBF800103D
:100C6000DBF80000012700F0805000906B4E3068E8
:100C7000C00510D4306840F480703060FFF786FD06
:100C8000009005E0FFF782FD0099401A022850D835
:100C90003068C005F6D55E4EA0686C3601280FD0CE
:100CA0000528306810D020F001003060306820F056
:100CB00004003060A068B8B1FFF768FD00900FE055
:100CC000306840F00100F4E740F004003060F7E7DE
:100CD000FFF75CFD0099411A41F28830814266D8E5
:100CE00030688007F4D50EE0FFF750FD009007E074
:100CF000FFF74CFD0099411A41F28830814256D8E5
:100D000030688007F4D42FB1DBF8001021F0805157
:100D1000CBF80010A069C8B33D49091D0968C1F3AB
:100D2000810102294AD00228504607D0C8F8600045
:100D300000E03CE0FFF72AFD04463BE04746C8F8E8
:100D40006000FFF723FD064605E000BFFFF71EFD2C
:100D5000801B02282BD828688001F7D4D4E907012A
:100D60000843A16A2E4A490802EB0141626A41EA3E
:100D70008211084394F82C1040EA0161C9F8001070
:100D800001203866FFF702FD044606E03EE000BFA2
:100D9000FFF7FCFC001B022809D828688001F7D562
:100DA00034E000BFFFF7F2FC001B022802D9032049
:100DB000BDE8F88F28688001F4D427E00128F7D037
:100DC000D9F80000E26900F4800191421CD1226A46
:100DD00000F03F01914217D147F6C071626A0140AD
:100DE000B1EB821F10D1A26A4FF0FF3300F4403103
:100DF00003EB5202B1EB024F06D194F82C1000F035
:100E00007060B0EB016F01D00120D1E70020CFE787
:100E10000438024000004742800E47420070004004
:100E20000000FFFF2DE9FE430446002603200D4687
:100E300084F83400606C03285ED0B5F5805F5BD029
:100E40004FF4006700204FF08068BD421FD18146FB
:100E5000009001900021206800F06EFC800113D406
:100E60006946204600F0A4FF07000DD10198400319
:100E700034D5B4F850000104206800F08EFC07005F
:100E800002D10221206823E0A06B384328E01DB185
:100E9000A06B40F0006023E08146009001900021AB
:100EA000206800F049FC8001EED46946204600F03D
:100EB0007FFF0700E8D10198C0030FD5B4F85000B8
:100EC0000104206800F069FC0700DDD100212068E2
:100ED00000F0AFFC0700D7D14F46D5E74746D3E730
:100EE000A063A06B144F4FF0010848B120688763DE
:100EF00084F8348001260EE0A06B40F08050EFE7CC
:100F0000211DD4E9050C0EC9CDE90050CDF808C06B
:100F1000206800F014FC4FF40071206800F070FCB1
:100F200028B121688F63A16B0143A163012684F876
:100F300034803046BDE8FE83FF054000F0B5426EC8
:100F4000920F0A70426EC2F383624A70426EC2F31D
:100F500001628A70426E120CCA70B0F86420120AE4
:100F60000A7190F864204A71826E120DCA80826EF6
:100F7000C2F303420A72B0F86820C2F3C0324A7268
:100F8000B0F86820C2F380328A72B0F86820C2F3E9
:100F90004032CA72B0F86820C2F300320A730026E9
:100FA0004E73426C4FF40075012462B1012A3AD0AD
:100FB000026847499163816B41F08051816380F8F9
:100FC00034400120F0BDB0F86820C36E9205120DC8
:100FD00042EA93720A61C26EC2F3C2620A75C26EBD
:100FE000C2F302624A75C26EC2F342528A75C26E81
:100FF000C2F38242CA75C26EC2F3C2320A760A696D
:10100000521C42650B7E03F007039B1C9A4042650D
:101010000B7A03F00F0704FA07F383655B0A5A4360
:10102000C0E917250EE090F86820C36E9206920A78
:1010300042EA13420A610A69521C92024265C0E9FF
:101040001652056630F86C2FC2F3803201F8192F62
:101050000288C2F3C6124A70027802F07F028A70D8
:101060004268D20FCA704268C2F341720A71426884
:10107000C2F382624A714268C2F383528A71426843
:10108000C2F34052CA710E724268C2F300424A7201
:101090008288C2F3C0328A728288C2F38032CA72F6
:1010A0008288C2F340320A738288C2F300324A73E4
:1010B0008288C2F381228A738288C2F30122CA73B2
:1010C0000079C0F3460008744C740020F0BD0000A5
:1010D000FF054000426C0A60826C4A60C26C8A6004
:1010E000026DCA60426D0A61826D4A61C26D8A6199
:1010F000006EC8610020704770B50446B0F850001B
:1011000000250104206800F07CFC18B1A16B0143AC
:10111000A16304E00021206800F00EFB0546C5F342
:10112000432070BD70B504000ED094F83400002543
:1011300018B92577204600F04FF8032084F83400D2
:10114000204600F00BF808B1012070BDA5632563AF
:10115000012084F83400002070BD0000FEB5002599
:10116000044676200095CDE9015029460B460A46F3
:10117000206800F0E4FA48BB154E46F8A05F2068EE
:1011800000F0EFFA012535600220FFF7D3F9204681
:1011900000F0F6FE30B100BF84F83450A16B01437B
:1011A000A16313E0204600F073FE0028F4D14FF451
:1011B0000071206800F024FB002808D0226805494F
:1011C0009163A16B0143A16384F834500120FEBDFB
:1011D00000802542FF054000F0B587B00446142189
:1011E0006846FFF7CAF81D492068884233D11C4879
:1011F0000024016841F400610160006800F40060AF
:10120000059017481438016841F004010160016835
:1012100001F004010591016841F0080101600068D6
:10122000022500F0080005904FF4F850CDE90005C4
:1012300002AA03260C2782E8D00069460948FFF776
:101240008BF90420CDE9000502AA694682E8D000A6
:101250000548FFF781F907B0F0BD0000002C014000
:101260004438024000080240000C02402DE9F04FD3
:1012700087B09B4616460D460446FFF787FA009056
:101280003DB194F83400012807D0A06B40F0005025
:101290000DE0A06B40F0006009E00020A063E26D6B
:1012A00006EB0B01914204D9A06B40F00070A063E3
:1012B0008AE0032184F834102168C862616C012936
:1012C00000D076024FF0FF3101914FEA4B2102919D
:1012D0004FF0010803AA902102278146CDF818801B
:1012E00082E8820201A9206800F010FABBF1010F28
:1012F00005D927633146206800F0F4FA05E0C4F808
:1013000030803146206800F006FBDFF83CA130B1A8
:101310002268C2F838A0A16B0143A16350E0029E8D
:101320001FE0406B000413D596B10027206800F041
:101330001CFA05F8010B010A05F8011B010C05F860
:10134000021B000E361F7F1C05F8010C082FEDD381
:10135000FFF71CFA01460098091A1098814220D222
:10136000F8B12068426B40F22A310A42D9D0416B71
:10137000C90509D5BBF1010F06D9616C032903D05A
:1013800000F070FB0028C3D12068416B090702D42C
:10139000416B89051AD5C0F838A0A06B40F0080051
:1013A00050E02168C1F838A0A06B40F00040A06375
:1013B00084F83480C4F83090032007B0BDE8F08F83
:1013C00084F83480C4F830900120F6E7416B890737
:1013D00005D5C0F838A0A06B40F0020032E0416BA8
:1013E00089061BD5C0F838A0A06B40F0200029E08A
:1013F00000F0BBF905F8010B010A05F8011B010C0F
:1014000005F8021B000E05F8010C361FFFF7BEF9A8
:101410000099411A109881420ED268B12068416B40
:10142000890201D5002EE3D1216840F23A50886349
:1014300084F834800020C0E72168C1F838A0A06B90
:1014400040F00040A063BBE7FF0540002DE9F04FEE
:101450008DB09B4616460D460446FFF797F90A9055
:101460003DB194F83400012807D0A06B40F0005043
:101470000DE0A06B40F0006009E00020A063E26D89
:1014800006EB0B01914204D9A06B40F00070A06301
:101490007AE0032184F834102168C862616C012964
:1014A00000D076024FF0FF3103914FEA4B210491B7
:1014B0009021CDE905104FF00109CDE907098246D9
:1014C00003A9206800F022F9BBF1010F06D9202002
:1014D00020633146206800F0DFFA05E01020206329
:1014E0003146206800F0F1FA5FEA000806D0216872
:1014F00041488863A06B40EA080074E0049E27E03E
:10150000406B40041CD5DEB15FF0000715F8010BFD
:10151000009015F8011B361F40EA0120009015F8D5
:10152000021B40EA0140009015F8011C40EA0160EE
:1015300000906946206800F02BF97F1C082FE5D346
:10154000FFF724F90A99411A1698814220D2F8B17E
:101550002068416B40F21A321142D1D0416BC9056B
:1015600023D5BBF1010F20D9616C03291DD000F0F8
:1015700079FAD0B1226820499163A16B0143A1633C
:1015800084F83490C4F830A001200DB0BDE8F08F8D
:10159000216819488863A06B40EA0800A06384F8BA
:1015A0003490C4F830A00320EFE72068416B0907AE
:1015B00002D4416B890505D50F498163A06B40F0CA
:1015C000080010E0416B890705D50B498163A06BCA
:1015D00040F0020007E0416BC90606D50649816369
:1015E000A06B40F01000A063CAE740F23A5181635B
:1015F00084F834900020C8E7FF05400010B5401E75
:10160000B0F1807F01D3012010BD4FF0E024606174
:101610000F21601700F0D6FD0020A0610720206197
:10162000002010BDFEE7000010B504490448FEF795
:101630005DFF0249491E087010BD00003100002006
:1016400004350008114808B5016841F00401016043
:10165000016801F004010091016841F0800101601E
:10166000016801F080010091016841F00101016011
:10167000016801F001010091016841F00801016079
:10168000006800F00800009008BD000030380240FB
:10169000FEE7000010B5012203A1044801F090F814
:1016A0000349087010BD0000000000005000002039
:1016B00000000020FEE7704710B501220DA1104880
:1016C00001F0AAF80F4C0028207011D104F1080392
:1016D00063220D490A4801F0ADF9207018B90A4992
:1016E000A26800208854BDE81040054801F054B8B5
:1016F00010BD000074657374312E7478740000009E
:101700008410002000000020583100200A68426246
:101710004A688262D1E902231A43D1E904310B43BA
:10172000C16A1A4321F0F7011143C16200207047DA
:10173000006800F00300704708444069704770B5C6
:101740000DF1100C11439CE8700023431943294309
:101750004268314347F6FF639A430A4342600020E0
:1017600070BD0321016000207047D0F880007047F1
:101770000A688260D1E901231A43D1E903310B439E
:10178000C1681A436FF30B011143C1600020704719
:101790000968C0F880100020704710B585B0044675
:1017A0003720CDE9001040200290002003904FF434
:1017B0008060049069462046FFF7DAFF41F28832E4
:1017C0003721204600F09AF905B010BD10B5044647
:1017D0000A4885B001432920CDE90010402002903D
:1017E000002003904FF48060049069462046FFF784
:1017F000BFFF204600F03AFA05B010BD000010808F
:1018000010B585B004461020CDE9001040200290AC
:10181000002003904FF48060049069462046FFF753
:10182000A7FF41F288321021204600F067F905B089
:1018300010BD10B585B004460620CDE9001040204B
:101840000290002003904FF4806004906946204687
:10185000FFF78EFF41F288320621204600F04EF954
:1018600005B010BD30B585B0002405460094019444
:101870004FF480600294CDE9034069462846FFF7A3
:1018800077FF0B484FF4FA510068B0FBF1F041F2DA
:1018900088314843401E03D24FF0004005B030BDB0
:1018A000696B0906F6D5C520A8632046F6E7000057
:1018B0004400002010B585B004464FF4D570009068
:1018C0000820019040200290002003904FF4806097
:1018D000049069462046FFF74BFF204600F02CFAA3
:1018E00005B010BD10B585B004461220CDE900103A
:1018F00040200290002003904FF4806004906946DD
:101900002046FFF735FF41F288321221204600F0D1
:10191000F5F805B010BD10B585B004461120CDE92D
:10192000001040200290002003904FF4806004904B
:1019300069462046FFF71CFF41F2883211212046FC
:1019400000F0DCF805B010BD10B585B004460720E6
:10195000CDE9002040200290002003904FF48060E9
:10196000049069462046FFF703FF41F288320721C1
:10197000204600F0C3F805B010BD10B585B0044690
:1019800000210220CDE90010C020CDE902014FF472
:101990008060049069462046FFF7EAFE204600F08A
:1019A0003DF905B010BD10B585B004460920CDE95C
:1019B0000010C0200290002003904FF4806004903B
:1019C00069462046FFF7D4FE204600F027F905B00F
:1019D00010BD10B585B0044600213320CDE90010BC
:1019E0004020CDE902010001049069462046FFF73E
:1019F000BFFE41F288323321204600F07FF805B067
:101A000010BD10B585B004460D20CDE90010402072
:101A10000290002003904FF48060049069462046B5
:101A2000FFF7A6FE41F288320D21204600F066F84D
:101A300005B010BD30B585B00C4605460021032029
:101A4000CDE900104020CDE9020100010490694673
:101A50002846FFF78DFE22460321284600F028F98C
:101A600005B030BD10B585B0044600210C20CDE98D
:101A700000104020CDE90201000104906946204693
:101A8000FFF776FE034A0C21204600F037F805B038
:101A900010BD000000E1F50510B585B00446192021
:101AA000CDE9001040200290002003904FF48060A8
:101AB000049069462046FFF75BFE41F28832192107
:101AC000204600F01BF805B010BD10B585B00446E7
:101AD0001820CDE9001040200290002003904FF420
:101AE0008060049069462046FFF742FE41F288324A
:101AF0001821204600F002F805B010BD454B10B586
:101B00001B684FF4FA54B3FBF4F353435B1E02D249
:101B10004FF0004010BD426B12F0450FF6D0120599
:101B2000F4D4426B520703D504218163084610BDEB
:101B3000426BD20702D00121816305E0C522826396
:101B40000269D2B28A4201D0012010BD0021FFF704
:101B5000F3FD3149084201D1002010BD002802DA0E
:101B60004FF0007010BD410001D5402010BD810034
:101B700001D5802010BDC10002D54FF4807010BD8A
:101B8000010102D54FF4007010BD410102D54FF4A0
:101B9000806010BDC10102D54FF4006010BD01028C
:101BA00002D54FF4805010BD410202D54FF40050D1
:101BB00010BD810202D54FF4804010BDC10202D594
:101BC0004FF4004010BD410302D54FF4003010BD6A
:101BD000810302D54FF4802010BDC10302D54FF41C
:101BE000002010BD010402D54FF4801010BD410447
:101BF00002D54FF4001010BD810402D54FF48000CF
:101C000010BD000702D54FF4000010BD4FF4803026
:101C100010BD00004400002008E0FFFD12494FF411
:101C2000FA520968B1FBF2F141F288325143491E80
:101C300002D24FF000407047426B12F0450FF6D0D1
:101C40001205F4D4416B490703D50421816308468A
:101C50007047416BC90703D0012181630846704773
:101C6000C521816300207047440000200F494FF4D4
:101C7000FA520968B1FBF2F141F288325143491E30
:101C800002D24FF000407047426B12F0450FF6D081
:101C90001205F4D4416B490703D50421816308463A
:101CA0007047C52181630020704700004400002078
:101CB00030B5204B4FF4FA541B68B3FBF4F341F2F8
:101CC000883463435B1E02D24FF0004030BD446B4A
:101CD00014F0450FF6D02405F4D4436B5B0703D50D
:101CE00004218163084630BD436BDB0702D001212C
:101CF000816303E00369DBB28B4201D0012030BD78
:101D0000C52181630021FFF717FD10F4604F04D057
:101D1000410406D54FF4005030BD000C1080002067
:101D200030BD000402D54FF4805030BD4FF48030F8
:101D300030BD00004400002014494FF4FA520968F5
:101D4000B1FBF2F141F288325143491E02D24FF009
:101D500000407047426B12F0450FF6D01205F4D4E4
:101D6000416B490703D50421816308467047416BE5
:101D7000C90703D00121816308467047416B4906BA
:101D800001D54021816300207047000044000020FD
:101D900010B5064C01202070FEF75AFB18B92078C8
:101DA00020F001002070207810BD00002F000020DE
:101DB0002DE9F04788B00D460446FEF7E7FC002603
:101DC000824600960196374608212068FFF718FDE5
:101DD00000282CD1B4F8500001042068FFF7DDFC86
:101DE000002824D1401E4FF00808CDE90208302019
:101DF0004FF00209CDE904090120CDE9067002A9DE
:101E00002068FFF783FC2068FFF7E3FD00280ED170
:101E10006F462068416B11F02A0F0BD0416B090708
:101E200002D4416B89051AD5C0F83880082008B063
:101E3000BDE8F087416B890205D5FFF796FC47F8AE
:101E40002600761C02E0416B8904E7D5FEF79EFC74
:101E5000A0EB0A00401CDCD14FF00040E7E7416BEB
:101E6000890703D5C0F838900220E0E7416B890666
:101E700003D5202181630846D9E740F23A518163B6
:101E8000019800BA2860009800BA68600020CEE788
:101E900010B590B004460120ADF838002068FFF777
:101EA00047FC002854D0606C032842D02068FFF71C
:101EB00064FD00284AD100212068FFF73DFC6067DF
:101EC00004212068FFF738FCA06708212068FFF78D
:101ED00033FCE0670C212068FFF72EFCC4F880007B
:101EE000606C032825D00EA92068FFF7A3FD002809
:101EF0002CD1606C03281CD0BDF83800206501048B
:101F00002068FFF750FD002820D100212068FFF74E
:101F100013FC606604212068FFF70EFCA066082110
:101F20002068FFF709FCE0660C212068FFF704FC3D
:101F3000206704212068FFF7FFFB000DE06403A980
:101F40002046FEF7FBFF30B14FF0805010B010BDBF
:101F50004FF08060FAE7B4F85000002302042068D4
:101F6000FFF7F2FC0028F1D104F1100007C88DE85A
:101F7000070094E80F00FFF7E2FB0020E6E700000F
:101F80002DE9F84F0026044600963546B046006815
:101F9000FFF768FC002827D12068FFF78BFC4FF083
:101FA000805B4FF001094FF6FF7748B1A6642068C7
:101FB000FFF758FC002817D1A06C012802D020E0C0
:101FC000C4F8489000212068FFF7E7FB58B918E0F3
:101FD00000212068FFF7E1FB002805D15146206869
:101FE000FFF7F4FB10B15846BDE8F88F00212068D8
:101FF000FFF7A2FB05464FEAD0780098401C0090FE
:1020000002E0DFF82CA00098B84202D2B8F1000F2D
:10201000DED00098B84202D34FF08070E4E7680049
:1020200002D5C4F8449000E066640020DCE70000BC
:10203000000010C170B5064C054601202070FEF767
:1020400013FA18B92846FFF7A3FE2070207870BD58
:102050002F00002010B5124888B014460078C00741
:1020600002D0032008B010BDC1B1012905D002295A
:1020700008D003290CD00420F4E76846FEF7E2F903
:1020800006980AE06846FEF7DDF90798208005E02B
:102090006846FEF7D7F90798400A20600020E1E77C
:1020A0002F00002070B51D46164608460124A31EC9
:1020B0002A463146FEF7F8F928B900BFFEF7C8F9FD
:1020C0000028FBD10024204670BDFFF761BE000050
:1020D00070B51D46164608460124A31E2A46314601
:1020E000FEF7F2F928B900BFFEF7B2F90028FBD1DC
:1020F0000024204670BD7047FEF74EBB70B592B00D
:1021000030216846FEF739F914210CA8FEF735F99D
:102110001F480025016841F080510160006800F00F
:10212000805011901B48016841F4404101600068F3
:10213000022400F44040119001200090000401901E
:102140008001CDE906400F260896D820CDE9090484
:1021500008200B906846FEF7AFFC08B172B6FEE7A8
:10216000FEF7A6FB08B172B6FEE74FF4A050CDE92A
:102170000E504FF48050CDE90C64109005210CA84E
:10218000FEF7CEFB002801D072B6FEE712B070BD9C
:1021900040380240007000400248016841F470017C
:1021A0000160704788ED00E0FEE7000008B542F2EC
:1021B00010730093530A02460148FFF747F908BD20
:1021C000D43000200907090E002804DB00F1E020CC
:1021D00080F80014704700F00F0000F1E02080F854
:1021E000141D704710B504460020E070401E2063A7
:1021F000204600F0F6FF08B1042010BD04F23220A2
:1022000000F08EFFA0F52A41553901D0032010BD02
:1022100094F83400E92805D0EB2814D194F836005E
:10222000902810D104F16A0000F06FFF0749B1EB6C
:10223000002F06D004F1860000F067FF04498842B1
:1022400001D1002010BD022010BD00000046415405
:1022500046415433F0B50022144D134605EB0214E9
:1022600026685EB10768BE4209D166688768BE42CB
:1022700005D1A4684669B44204D000E00123521C91
:10228000022AEBD3022A01D069B904E04BB9022932
:1022900007D01220F0BD05EB02108089B0F5807FD9
:1022A00001D00020F0BD1020F0BD0000BC310020A6
:1022B00030B50021054B0C4603EB01121568854231
:1022C00000D11460491C0229F6D330BDBC31002076
:1022D0000268C06A938952895343B1FBF3F1001D30
:1022E00004C81AB1914203D3891AF8E70020704755
:1022F0000068084470478269891E921E8A4201D88C
:1023000000207047C26A408901FB002070472DE918
:10231000F04105680F00804606D000F00EFE02284E
:1023200009D20120BDE8F0812E6916B1A869B0423A
:1023300007D8012605E0411CF4D0A9698142F1D8F3
:102340003E463446A869641CA04202D80224022EEC
:102350000AD32146404600F0F0FD38B10128E1D013
:10236000411CDFD0B442EDD10020DBE74FF0FF3657
:1023700032462146284600F04DFF30B957B122467B
:102380003946284600F046FF20B101280FD001242D
:102390002046C7E72C61D5E90501891E884201D88E
:1023A000401E6861287940F001002871F0E734464A
:1023B000EEE700002DE9F0410E4624300D6804469A
:1023C0000B22202100F006FF0020014608272A5C8E
:1023D000401C202A12D92F2A0BD05C2A09D02E2A81
:1023E00001D0B94214D30B2F22D02E2A20D10CE0D9
:1023F000401C2B5C2F2BFBD05C2BF9D02844306089
:10240000B1B12078E5281FD020E008210B27DEE7B6
:10241000802A03D3114B1A4412F8802C10A300E039
:102420005B1C93F800C0BCF1000F04D09445F7D1B9
:102430000620BDE8F081A2F16103192B01D8203AF2
:10244000D2B26254491CC2E705202070202A01D86C
:10245000042000E00020E0720020EAE728350008B0
:10246000222A2B2C3A3B3C3D3E3F5B5D7C7F0000AB
:10247000401E022812D20A4901EB00118889B0F5EA
:10248000807F05D008B1401E80B2888110B103E082
:102490000020FAE700200860002070470220704703
:1024A000BC3100202DE9F04104460021056800F010
:1024B000DFF8002826D12846E16900F092FE0200EC
:1024C0001FD1206A017899B1C17A01F03F01A17151
:1024D000C17A09070FD404F124010B2610F8013B3F
:1024E00011F8017BDB1B761E04D0002BF6D002E036
:1024F000042206E02BB10021204600F005F802007E
:10250000D9D01046BDE8F0812DE9F047054647696E
:102510000468C0698946203710B1B7F5001F02D39F
:102520000420BDE8F087A189B7FBF1F201FB12712D
:1025300000295FD1401CE861A9694FF0000819B378
:10254000A0896289B7FBF0F0521E104252D1284692
:1025500000F0F3FC064601281FD9701C36D0A06994
:10256000B04241D8B9F1000F12D02846A969FFF74F
:10257000CEFE06000FD0012E0FD0701C26D02046B4
:1025800000F078FF10BB0AE02089B0EB571F31D86C
:10259000C5F81C80C4E70720C3E70220C1E7A28971
:1025A000002104F1340000F015FE4FF00008314620
:1025B0002046FFF7A0FE4FF0010920630DE000BFA9
:1025C00084F80390204600F055FF08B10120A8E7E9
:1025D000206B08F10108401C206361894145EFD858
:1025E000216BA1EB0800206331462046AE61FFF766
:1025F00082FEE8616F61A089B7FBF0F100FB11700A
:1026000020443430286200208BE770B50446002156
:10261000066800F02DF80DE03046E16900F0E1FDBC
:1026200050B9206A0078E52809D040B10121204640
:10263000FFF76AFF0028EFD0042807D007E03046F4
:10264000E16900F0CEFD050003D00FE0072005464C
:102650000CE020220021206A00F0BCFD0B2204F1D6
:102660002401206A00F0ACFD0120F070284670BD06
:102670002DE9F04104680F460646B1F5001F3CD233
:10268000F8063AD17761B56825B92078032806D3D2
:10269000A56A25B16089A18900FB01F812E02089B3
:1026A000B0EB571F29D9A06A12E0304600F045FC74
:1026B0000546401C1FD0022D1FD3A069A8421CD97B
:1026C000A7EB080747452946EFD22046FFF713FE40
:1026D000C6E9065088B1A189B7FBF1F10844F06161
:1026E000A089B7FBF0F100FB117020443430306258
:1026F0000020BDE8F0810120FBE70220F9E700009F
:1027000070B5094C05460020615D00290AD104EB33
:10271000850160194968007A09688847002801D155
:102720000121615570BD0000DC31002030B4054C42
:10273000231804EB80001B7A406804691846A446FD
:1027400030BC6047DC31002030B4054D2C1805EB5F
:102750008000247A406885682046AC4630BC6047DB
:10276000DC310020044A111802EB8000097A40682D
:102770004268084610470000DC31002030B4054DA7
:102780002C1805EB8000247A4068C5682046AC46CA
:1027900030BC6047DC31002038B5044600F005FA53
:1027A00000280CD16946204600F08DFE002806D195
:1027B0002069FFF75DFE002801D10021216038BDAE
:1027C0002DE9F74181B0904602980090684600F0EC
:1027D0002AFC040003D50B2004B0BDE8F0810D4EA7
:1027E000002756F824501DB12846FFF761FD2F70D1
:1027F0000198002800D0077046F8240002D0B8F1F4
:10280000010F01D00020E7E7002201A902A800F093
:1028100013FAE1E74C0000202DE9F74394B00500DE
:102820000BD002F03F063246694615A800F004FAC4
:1028300004004FF0000804D0F3E0092017B0BDE811
:10284000F0830098049004A8159900F039FB040067
:102850000ED19DF83F00000601D5062408E070085F
:1028600001D0012100E0002104A8FFF7F3FC044699
:1028700016F01C0F5DD04FF00109C4B1042C10D12B
:1028800000206B4902E0401C022804D201EB001238
:102890001268002AF7D1022807D004A8FFF7B5FE76
:1028A000044646F008065CB1BBE01224B9E09DF88E
:1028B000160010F0110F47D1700701D50824B0E0C1
:1028C000300747D500F0ADFB07460C9839460E306F
:1028D00000F080FD0C983946163000F07BFD0C9816
:1028E0002021C1720C99009800F0FCFB07460022E1
:1028F0000C99009800F05AFD0C9800211C3000F053
:1029000069FD009981F8039017B3D1F83090002247
:10291000394604A800F010FD040009D1494600988A
:1029200000F05FFC04000098A7F1010707610DD0DB
:1029300077E0ECBB9DF81600C10601D5042470E0D9
:10294000B10703D5C00701D007246AE0300701D5DD
:1029500046F040060098006B68620C98A862700808
:1029600001D0012100E0002104A800F07BFB2861D8
:10297000C0B30C99009800F0B5FBA8600C981C300F
:1029800000F0C3FBC5F82C80E8600099296000992D
:1029900005F130004FF48052C988A9802E7585F862
:1029A0001580C5F8208000218146C5F8188000E018
:1029B00037E000F00FFCB00635D5EE689EB3AE618F
:1029C0000098A9684789808947430FE0284600F0AE
:1029D000B4FA0146012800D80224481C03D0F61B93
:1029E00024B105E021E00124F61B01E0BE42EDD850
:1029F000E961B4B900988289B6FBF2F302FB136275
:102A00008AB1FFF778FC80B1009901238A89B6FB6F
:102A1000F2F202442A6248784946FFF795FE10B167
:102A20000124C5F80080204608E70224F9E70000E9
:102A3000BC3100202DE9F04F884689B00021196093
:102A400099461546044604A900F03DFD002812D120
:102A5000607D00280FD1207DC0070BD0A169E06800
:102A60000127401A4FF0020A04F1300B854200D9C9
:102A7000054695E0072009B0BDE8F08F049BA169E9
:102A80009889B1FBF0F200FB1212002A69D1B1FB68
:102A9000F0F65889401E064011D129B1E06A28B1EC
:102AA0002046FFF715FC05E0A06803E02046E16939
:102AB00000F043FA02281DD3411C4DD0E061E169CA
:102AC0000498FFF718FCA8B130440090049881895D
:102AD000B5FBF1F1059131B3721841898A4201D9F0
:102AE000891B059140784146059B009AFFF72CFE13
:102AF00090BB03E084F815A00220BCE7207D00060F
:102B00000CD5216A0098081A0599884206D20499C2
:102B10008A89594600FB028000F052FB049886899E
:102B20000598464332E0226A00998A4217D0217DF7
:102B3000090609D5407801235946FFF71FFE58B909
:102B4000207D00F07F0020750498012359464078CD
:102B5000009AFFF7F9FD10B1677501208BE7009827
:102B600020620498A1698089B1FBF0F200FB121287
:102B7000861AAE4200D92E46B1FBF0F200FB1210CD
:102B8000011932464046303100F01AFBA069B044CA
:102B90003044A061D9F800008119AD1BC9F80010BC
:102BA000002D7FF46BAF002065E7F8B50446694659
:102BB00000F089FC00280ED1217D4A060BD50806BD
:102BC0000ED50098226A0123407804F13001FFF706
:102BD000D5FD08B10120F8BD207D00F07F002075F3
:102BE00000F01FFA0646616A009800F0FAFA002821
:102BF000F1D1A56A2946E87A40F02000E872A2687F
:102C0000206800F0D3FB05F11C00E16800F0E2FB56
:102C1000314605F1160000F0DDFB002105F1120040
:102C200000F0E0FB00980121C17000F0DFFB217D86
:102C300001F0BF012175F8BD2DE9FF410027904645
:102C40000E460F6000F0EFF9050003D50B2004B02D
:102C5000BDE8F081974850F825409CB13460207859
:102C600008F0FE0620B16078FFF77CFDC1070BD0AD
:102C70002770E8B2B8466070FFF742FDC10708D080
:102C80000320E4E70C20E2E70EB1400704D4002063
:102C9000DDE71EB1400701D50A20D8E7607804F1CE
:102CA0000C020221FFF742FDF0BBA089A0F50071E4
:102CB000B1F5606F3FD8411E08423CD10026314635
:102CC0002046FFF78FFA022822D100254FEA0D0790
:102CD00004EB051090F8F61100F5F97019B1083001
:102CE00000F013FA00E0002047F825006D1C042DC9
:102CF000EED3002557F8256036B131462046FFF760
:102D000071FA022801D203E003206D1C042DF1D3D7
:102D1000042810D0022878D204F13F0000F000FA15
:102D2000A189884271D100E005E004F14A0000F079
:102D3000F7F910B105E0012089E704F1580000F02F
:102D4000E4F9E06194F84450A570012D01D0022D02
:102D50005BD1454394F841006081E8B3411E0842CD
:102D600053D104F1450000F0DBF92081A189490924
:102D7000B0FBF1F201FB120070BB04F1470000F060
:102D8000CFF9070004D104F1540000F0BEF9074662
:102D900004F1420000F0C4F9010036D0A089238973
:102DA0004009B3FBF0F04A19024497422DD3B81AF8
:102DB0006789B0FBF7F078B103274FF6F57C6045E3
:102DC00000D8022740F6F57C604500D80127324440
:102DD000801C3144E26200E017E0A061C4E90861B0
:102DE000032F14D08BB12944A162022F20D000F010
:102DF000010100EB400001EB5000A189401E084496
:102E0000B0FBF1F0E169884214D90D201FE704F10D
:102E10005E0000F085F90028F7D120890028F4D160
:102E200004F1600000F071F9A062A0698000E4E79D
:102E30004000E2E74FF0FF306061206180202071A8
:102E4000032F2CD104F1640000F06AF9012826D187
:102E5000711C204600F0C5F908BB84F8048004F218
:102E6000322000F05DF9A0F52A41553917D104F15F
:102E7000340000F04AF91049884210D104F5067078
:102E800000F043F90D49884209D104F5077000F0BC
:102E90003CF9606104F5087000F037F920610548DD
:102EA0002770001F0188491C0180E1802046FFF740
:102EB000FFF9ECE64C000020525261417272416110
:102EC00073B504460568019801E0401C0190017843
:102ED0002F29FAD05C29F8D00021A1600198007850
:102EE000202806D2802084F82F002046FFF7C0FB60
:102EF0007CBD01A92046FFF75DFA0028F8D12046E5
:102F0000FFF7D0FA94F82F1028B10428F0D1490720
:102F1000EED405207CBD4907FCD4A079C006F8D5C5
:102F2000A9896069B0FBF1F201FB12004119284642
:102F3000343100F0D7F8A060DBE72DE9F0410468F8
:102F40000D4602290BD3A069A84208D920784FF07A
:102F5000FF36012807D0022834D0032849D00126A3
:102F60003046BDE8F081A08905EB5507B7FBF0F0CE
:102F7000616A0144204600F034F90028F0D1A089AC
:102F8000B7FBF0F100FB11717F1CB7FBF0F021449F
:102F900091F83480616A0144204600F022F900284B
:102FA000DED1A089B7FBF0F100FB1170204490F84E
:102FB000341048EA0120E90701D00609D0E7C0F340
:102FC0000B06CDE7A089616A4008B5FBF0F001442B
:102FD000204600F006F90028C2D1A1896800B0FBA4
:102FE000F1F201FB12002044343000F099F806465B
:102FF000B6E7A089616A8008B5FBF0F0014420467D
:1030000000F0EFF80028ABD1A189A800B0FBF1F2E5
:1030100001FB12002044343000F077F820F07046B5
:103020009EE70020704710B504464FF0FF3022683D
:10303000002A13D0114600E0491C0B78212B0ED337
:103040003A2BF9D112F8013B303B0A2B06D28A42C7
:1030500004D1002B02D1491C1846216010BD00206C
:1030600010BD0000F0B502461D4BD2F80050002004
:1030700003EB00142668AE4207D166689768BE422B
:1030800003D1A4685669B44202D0401C0228EFD391
:10309000022814D1002002E0401C022804D203EBD5
:1030A00000142468002CF7D102280ED003EB001482
:1030B0002560956865605269A2600022A28100299E
:1030C00003EB0011898902D019B10020F0BD491C21
:1030D00001E04FF4807103EB0012401C9181F0BDC0
:1030E000BC31002070B506460D4601F11A0000F013
:1030F00017F804463078032805D105F1140000F0D4
:103100000FF844EA0044204670BDC178827842EA54
:1031100001214278007842EA012140EA012070470B
:103120004178007840EA012070470000ADF5027D4B
:10313000FDF73AFBFEF7E2FFFEF784FAFEF774FABA
:103140001A4819490160002141608160C160016134
:10315000416102218161FEF79DFA1448FDF7E2FF0B
:1031600008B172B6FEE712491048FDF7B3FF4FF001
:10317000FF3000900123002201A90C48FEF776F8E9
:1031800008B172B6FEE701220AA10B48FFF718FB4F
:103190000A490870FEF790FA084923220C310520ED
:1031A000FFF704F8FEE70000002C0140D4300020B7
:1031B000B42000200000000050000020000000208B
:1031C000002A05D011F8013B00F8013B521EF9D14D
:1031D000704700005FFA81F100F8011B521EFBD11D
:1031E000704770B50446006B0D460026A8420FD00C
:1031F000204600F03FF906000AD1607801232A46F4
:1032000004F13401FFF7A0FA08B1751E0126256309
:10321000304670BD2DE9F047022617460D4604469C
:1032200002297DD3A069A8427AD920784FF00109FC
:10323000012804D0022840D003287AD154E0A18983
:1032400005EB5508B8FBF1F0616A01442046FFF731
:10325000C8FF06006DD1A189B8FBF1F201FB128015
:103260002044343008F10108E90704D00178FAB2AB
:1032700062F31F1100E03946017084F80390A189C0
:10328000B8FBF1F0616A01442046FFF7AAFF06008F
:103290004FD1A189B8FBF1F201FB128020443430F8
:1032A000E90702D0C7F3071105E00178C7F303224D
:1032B00001F0F0011143017039E0A089616A400812
:1032C000B5FBF0F001442046FFF78BFF060030D13C
:1032D000A1896800B0FBF1F201FB12002044B9B2F1
:1032E000343000F07FF822E0A089616A8008B5FBE5
:1032F000F0F001442046FFF774FF060019D1A089C1
:10330000AD00B5FBF0F100FB115020443430FFF765
:10331000FCFE67F31B000146A089B5FBF0F200E05C
:1033200007E000FB12502044343000F053F884F8DA
:1033300003903046BDE8F0872DE9F041056813465B
:103340000E46074602292DD3A869B0422AD93BB1BF
:103350004FF0FF3219462846FFF75CFF00281FD1C7
:1033600031463846FFF7E9FD040018D0012C19D08A
:10337000601C19D0002231462846FFF74BFF002879
:103380000ED1D5E90510821E914205D2491C696112
:10339000297941F0010129712646B042E0D8002088
:1033A000BDE8F0810220FBE70120F9E770B50C468B
:1033B0000646154691B204F11A0000F013F8307871
:1033C000032806D1290C04F11400BDE8704000F078
:1033D00009B870BD0170090A4170090A8170090AB3
:1033E000C17070470170090A4170704770B504469A
:1033F00000F040F8050036D1207803282CD1207940
:10340000012829D104F13400A28900210646FFF7E2
:10341000E1FE4AF6552104F23220FFF7E3FF13499B
:103420003046FFF7D7FF124904F50670FFF7D2FFC9
:1034300004F507706169FFF7CDFF04F50870216995
:10344000FFF7C8FF226A0123521C226360783146CD
:10345000FFF794F900202071002260781146FFF7F1
:1034600065F900B10125284670BD00005252614146
:10347000727241612DE9F0410446C0780027F8B12D
:10348000256B04F13401607801232A468846FFF752
:1034900075F908B1012713E00020E070606AE16966
:1034A000281A88420CD2A67808E0E0690123054476
:1034B00060782A464146FFF761F9761E022EF4D263
:1034C0003846BDE8F08170B50E4604004FF009059E
:1034D0000CD0206850B1017841B1A188C2889142D6
:1034E00004D14078FFF73EF9C00703D000203060D8
:1034F000284670BD00252068F9E74FF04070E1EEE6
:10350000100A704735200008CB200008A5200008CD
:10351000D120000855200008000000000000000035
:10352000010203040607080943554541414141434F
:1035300045454549494941414592924F4F4F55555F
:10354000594F554F9C4F9E9F41494F55A5A5A6A742
:10355000A8A9AAABACADAEAFB0B1B2B3B4414141D2
:10356000B8B9BABBBCBDBEBFC0C1C2C3C4C541416E
:10357000C8C9CACBCCCDCECFD1D1454545494949A3
:1035800049D9DADBDCDD49DF4FE14F4F4F4FE6E849
:10359000E85555555959EEEFF0F1F2F3F4F5F6F719
:1035A000F8F9FAFBFCFDFEFF0100040010004000EA
:1035B00000010002000001000200040008001000E9
:1035C00020000000E435000800000020500000004A
:1035D000E80100083436000850000020F8370000E9
:1035E00004020008000000000000000000000000CD
:1035F00048656C6C6F2C2053544D33322120546835
:103600006973206973206120746573742066696C26
:10361000652E000100000000000000000100000015
:1036200010000000000000000024F4000000000072
:043630000000000096
:04000005080001AD41
:00000001FF
